:100000000C9473030C949B030C949B030C949B0320
:100010000C949B030C949B030C949B030C949B03E8
:100020000C949B030C949B030C94A6060C9415074C
:100030000C949B030C949B030C949B030C949B03C8
:100040000C949B030C949B030C949B030C949B03B8
:100050000C949B030C949B030C949B030C944709F6
:100060000C949B030C949B030C949B030C949B0398
:100070000C949B030C949B030C949B030C949B0388
:100080000C949B030C949B030C949B030C949B0378
:100090000C949B030C949B030C949B030C949B0368
:1000A0000C949B030C949B030C949B030000000096
:1000B000003E5B4F5B3E3E6B4F6B3E1C3E7C3E1CEE
:1000C000183C7E3C181C577D571C1C5E7F5E1C0034
:1000D000183C1800FFE7C3E7FF0018241800FFE7EB
:1000E000DBE7FF30483A060E2629792926407F05AE
:1000F0000507407F05253F5A3CE73C5A7F3E1C1CC4
:1001000008081C1C3E7F14227F22145F5F005F5F83
:1001100006097F017F006689956A6060606060946F
:10012000A2FFA29408047E040810207E2010080874
:100130002A1C08081C2A08081E101010100C1E0C7F
:100140001E0C30383E3830060E3E0E060000000011
:100150000000005F00000007000700147F147F14F8
:10016000242A7F2A1223130864623649562050003D
:1001700008070300001C2241000041221C002A1C29
:100180007F1C2A08083E0808008070300008080814
:100190000808000060600020100804023E51494534
:1001A0003E00427F400072494949462141494D3352
:1001B0001814127F1027454545393C4A49493141B9
:1001C000211109073649494936464949291E000087
:1001D00014000000403400000008142241141414DC
:1001E0001414004122140802015909063E415D59C8
:1001F0004E7C1211127C7F494949363E41414122D1
:100200007F4141413E7F494949417F090909013EFA
:10021000414151737F0808087F00417F4100204021
:10022000413F017F081422417F404040407F021C33
:10023000027F7F0408107F3E4141413E7F0909094A
:10024000063E4151215E7F09192946264949493216
:1002500003017F01033F4040403F1F2040201F3FDC
:100260004038403F63140814630304780403615961
:10027000494D43007F4141410204081020004141A3
:10028000417F04020102044040404040000307084F
:100290000020545478407F2844443838444444284B
:1002A000384444287F385454541800087E090218F2
:1002B000A4A49C787F0804047800447D400020407A
:1002C000403D007F1028440000417F40007C0478BE
:1002D00004787C080404783844444438FC18242406
:1002E0001818242418FC7C08040408485454542486
:1002F00004043F44243C4040207C1C2040201C3C03
:100300004030403C44281028444C9090907C4464F9
:10031000544C44000836410000007700000041368C
:10032000080002010204023C2623263C1EA1A16112
:10033000123A4040207A3854545559215555794144
:100340002154547841215554784020545579400C1B
:100350001E527212395555555939545454593955FC
:100360005454580000457C410002457D420001453F
:100370007C40F0292429F0F0282528F07C545545AC
:10038000002054547C547C0A097F4932494949323F
:100390003248484832324A4848303A4141217A3A54
:1003A00042402078009DA0A07D39444444393D401E
:1003B00040403D3C24FF2424487E4943662B2FFCCB
:1003C0002F2BFF0929F620C0887E09032054547979
:1003D000410000447D413048484A32384040227A4A
:1003E000007A0A0A727D0D19317D2629292F2826C7
:1003F0002929292630484D402038080808080808CF
:100400000808382F10C8ACBA2F102834FA00007B27
:10041000000008142A142222142A1408950022002D
:1004200095AA005500AAAA55AA55AA000000FF00E7
:10043000101010FF00141414FF001010FF00FF1024
:1004400010F010F0141414FC001414F700FF000056
:10045000FF00FF1414F404FC141417101F10101FD5
:10046000101F1414141F00101010F0000000001FC3
:10047000101010101F10101010F010000000FF10CE
:100480001010101010101010FF10000000FF1400CA
:1004900000FF00FF00001F10170000FC04F41414FC
:1004A0001710171414F404F40000FF00F7141414C8
:1004B00014141414F700F7141414171410101F1048
:1004C0001F141414F4141010F010F000001F101F6B
:1004D0000000001F14000000FC140000F010F010D9
:1004E00010FF10FF141414FF141010101F00000050
:1004F00000F010FFFFFFFFFFF0F0F0F0F0FFFFFF54
:100500000000000000FFFF0F0F0F0F0F38444438AA
:10051000447C2A2A3E147E02020606027E027E02E5
:1005200063554941633844443C04407E201E200604
:10053000027E020299A5E7A5991C2A492A1C4C7241
:1005400001724C304A4D4D303048784830BC625AC8
:10055000463D3E494949007E0101017E2A2A2A2A58
:100560002A44445F444440514A444040444A514034
:100570000000FF0103E080FF000008086B6B0836F5
:1005800012362436060F090F060000181800000066
:100590001010003040FF0101001F01011E00191D55
:1005A0001712003C3C3C3C0000000000F0F89C8E20
:1005B0008783878E9CF8F00000FEFF03030303038C
:1005C000070EFCF80000FEFF0303030303070EFC05
:1005D000F80000FFFF00000000000000FFFF000027
:1005E000FEFF8383838383C7EE7C380000F8FC0E14
:1005F00007030303070EFCF800003F7FE0C0808084
:10060000C0E07F3FFFFF01010101010101FFFF0089
:1006100000FFFF0C0C0C0C1C3E77E3C100007FFFB9
:10062000C0C0C0C0C0E0703F1F00001F3F70E0C0EE
:10063000C0C0E0703F1F00007FFFC1C1C1C1C1E366
:10064000773E1C00001F3F70E0C0C0C0E0703F1F3D
:10065000000000000001FFFF01000000D5F08D1434
:10066000A1C881CFD9F1AF200048656C6C6F2C20F8
:10067000776F726C642100080B000202020000090F
:1006800004000001020200000524001001052401FD
:100690000101042402060524060001070581031058
:1006A000004009040100020A0000000705020240A0
:1006B0000000070583024000000403090412010042
:1006C00002EF020140412336800001010203014193
:1006D000726475696E6F204C4C43004172647562A0
:1006E0006F790000C40911241FBECFEFDAE0DEBF2E
:1006F000CDBF11E0A0E0B1E0E6E2F9E102C0059073
:100700000D92A233B107D9F725E0A2E3B1E001C011
:100710001D92A13BB207E1F713E0C3E7D3E004C0A9
:100720002197FE010E948B0CC237D107C9F70E94A6
:10073000E1090C94910C0C940000EDE5F1E0A0E0CF
:10074000B8E000800EBC8111012C1197A0FDFDCFF7
:100750000192B9F70DB40895FC0180915C018823E2
:1007600011F13FB7F89482E08093E9002091F20004
:10077000822F90E01816190614F481E090E0882387
:1007800039F0289844E640935B014091F1004083A2
:10079000222339F02091F200211103C02BE620938F
:1007A000E8003FBF08958FEF9FEF08952FB7F894AB
:1007B00083E08093E9009091E800892F807295FF93
:1007C00004C09091F20080E4891B2FBF08958091AE
:1007D000530181110DC082E080934F0184E080932A
:1007E0005001109252011092510181E08093530107
:1007F0008FE491E00895CF93DF931F92CDB7DEB7DA
:100800006983DC01ED91FC910280F381E02D41E0F0
:1008100050E0BE016F5F7F4F09950F90DF91CF9140
:10082000089583E08093E9008091F200882319F015
:100830008AE38093E80008950E94D60390E008952B
:10084000CF93DF931F92CDB7DEB7FC0184859585EA
:1008500097FD08C02FEF3FEF358724870F90DF917A
:10086000CF910895CE0101960E94AC03019719F42F
:10087000898190E0F3CF8FEF9FEFF0CF0F931F931D
:10088000CF93DF931F92CDB7DEB78C01FC01848537
:10089000958597FF0BC0CE0101960E94AC0301978E
:1008A00071F4898190E0F80195878487F801848547
:1008B00095850F90DF91CF911F910F9108958FEF44
:1008C0009FEFF1CFFC018485958597FD0BC09FB705
:1008D000F89482E08093E9008091F2009FBF90E05D
:1008E000019608959FB7F89482E08093E900809183
:1008F000F2009FBF90E008954091490150914A0154
:10090000209147013091480142175307B4F4909168
:10091000E8009570E1F39091E80092FD19C0809392
:10092000F1008091490190914A0101968F739927B6
:10093000892B19F48EEF8093E80080914901909102
:100940004A01019690934A018093490181E00895FC
:1009500080E00895DF92EF92FF920F931F93CF9361
:10096000DF93D82E8A01EB017B01E40EF51ECE1534
:10097000DF0559F0D7FE12C0FE0184910E947C046D
:1009800021968111F4CF0FEF1FEFC801DF91CF91B6
:100990001F910F91FF90EF90DF9008958881EECF27
:1009A0000F931F93CF93DF931F92CDB7DEB782E0F3
:1009B000898342E450E067E776E080E80E94AA0479
:1009C0000E94E703DC0112960D911C91011511059F
:1009D00089F0D801ED91FC910280F381E02DBE01F8
:1009E0006F5F7F4FC801099597FD04C0F80100852E
:1009F0001185ECCF89810F90DF91CF911F910F91DD
:100A00000895615030F02091F100FC01208301969F
:100A1000F8CF289884E680935B010895AF92BF9247
:100A2000CF92DF92EF92FF920F931F93CF93DF93BA
:100A30006C017B018B01040F151FEB015E01AE18E9
:100A4000BF08C017D10759F06991D601ED91FC910B
:100A50000190F081E02DC6010995892B79F7C50138
:100A6000DF91CF911F910F91FF90EF90DF90CF908A
:100A7000BF90AF9008953FB7F89480913301909163
:100A80003401A0913501B091360126B5A89B05C06F
:100A90002F3F19F00196A11DB11D3FBFBA2FA92FFD
:100AA000982F8827BC01CD01620F711D811D911DFA
:100AB00042E0660F771F881F991F4A95D1F7089566
:100AC0008F929F92AF92BF92CF92DF92EF92FF925E
:100AD0006B017C010E943B054B015C01C114D104F8
:100AE000E104F104B9F00E943B05681979098A090B
:100AF0009B09683E73408105910580F321E0C21A8D
:100B0000D108E108F10888EE880E83E0981EA11C48
:100B1000B11CE4CFFF90EF90DF90CF90BF90AF90EB
:100B20009F908F9008958F929F92AF92BF92CF9295
:100B3000DF92EF92FF920F931F93CF93DF936C019D
:100B40007B018A0180910C01882309F45CC08091AB
:100B50005C01882309F457C080914E0180FF05C0D5
:100B60008091E00082608093E000E801B12C8AEF80
:100B7000A82E93E0892E2AE3922E209711F4BB2011
:100B8000D9F10E94D60381110AC0AA94AA20D9F1F2
:100B900061E070E080E090E00E946005EECF8C178D
:100BA0001D0611F00CF08C2F9FB7F8948092E9008D
:100BB0002091E80025FD02C09FBFDFCF282F30E045
:100BC000C21BD30BF701815020F041914093F100FB
:100BD000FACFE20EF31EBB2021F09092E800B12C78
:100BE000EBCF8091E80085FDE7CF9092E800BB2431
:100BF000B394209709F3F3CF5D9884E680934D0179
:100C0000101611063CF081E090E0F6019383828398
:100C100010E000E0C801DF91CF911F910F91FF908C
:100C2000EF90DF90CF90BF90AF909F908F900895FE
:100C30002D9A0895BC0190E080E00C9460058FB17E
:100C40008095807F669B88601C9B84600895AF922E
:100C5000BF92CF92DF92EF92FF920F931F93CF93A9
:100C6000DF936D3079F0C0913F01D09140016A303F
:100C7000B1F410924201109241012896D0934001A4
:100C8000C0933F0181E090E0DF91CF911F910F91E0
:100C9000FF90EF90DF90CF90BF90AF90089540917C
:100CA00041015091420185E0689FF0011124E45513
:100CB000FF4F9A01C12C80E1E82EA5E070E0CA1632
:100CC00021F0CF0101967491FC0110E000E0B72FF4
:100CD000B170DB2E20383105D0F4CE01800F911F8A
:100CE00080349105A0F461E081FD64E080FD660F31
:100CF00082FD6295887FE89ED0011124A20FF62E16
:100D0000A35ABE4F8C91DD20A9F0862B8C9376954B
:100D10000F5F1F4F08301105D1F6C3942F5F3F4F6F
:100D200086E0C812CACF4A5F5F4F5093420140939A
:100D30004101A8CFF0948F21E9CF80E00C949D036E
:100D4000089590E080E008950C94750C1F920F9226
:100D50000FB60F9211248F939F938091E100909191
:100D6000E100937F9093E10083FF0FC01092E900B0
:100D700091E09093EB001092EC0092E39093ED00E1
:100D800010925C0198E09093F00082FF22C093E003
:100D90009093E9009091F200992319F09AE39093CF
:100DA000E80090914D01992341F090914D019150AF
:100DB00090934D01911101C05D9A90915B0199232F
:100DC00041F090915B01915090935B01911101C0B2
:100DD000289A84FF18C08091E2008E7E8160809303
:100DE000E2008091E1008F7E8093E10080914E01CE
:100DF0008E7E806180934E019F918F910F900FBEE8
:100E00000F901F90189580FFF7CF8091E2008E7EA3
:100E100080618093E2008091E1008E7E8093E1000A
:100E200080914E018E7E8160E5CF1F920F920FB6AA
:100E30000F921124CF92DF92EF92FF920F931F93A4
:100E40002F933F934F935F936F937F938F939F93D2
:100E5000AF93BF93EF93FF93CF93DF93CDB7DEB7FD
:100E60006C97DEBFCDBF1092E9008091E80083FF50
:100E700025C068E0CE0145960E94010582EF80936F
:100E8000E8008D8987FF39C09091E80090FFFCCF82
:100E9000982F907609F034C19E894F89588D2F89FB
:100EA000F88C911131C0803861F580914C018093AC
:100EB000F1001092F1008EEF8093E8006C960FB66F
:100EC000F894DEBF0FBECDBFDF91CF91FF91EF91C0
:100ED000BF91AF919F918F917F916F915F914F9152
:100EE0003F912F911F910F91FF90EF90DF90CF9046
:100EF0000F900FBE0F901F9018959EEF9093E800F3
:100F0000C7CF1092F100D5CF913059F48111D3CFD2
:100F10004130510581F680914C018D7F80934C01C9
:100F2000CACF933049F48111C6CF4130510519F62B
:100F300080914C018260F2CF953041F48091E800BD
:100F400080FFFCCF20682093E300B5CF963009F0F6
:100F5000A9C00B8D1C8D22E01092E90010924A016D
:100F600010924901F2122EC01092480110924701CE
:100F70000E94D0041F8299E09983FA8291E09E83B7
:100F800090EA98879AEF99872091490130914A0118
:100F9000275F3F4F3C832B838D831092E900109293
:100FA0004A0110924901109348010093470149E01A
:100FB00050E0BE016F5F7F4F80E00E94AA040E9454
:100FC000D00479CF10934801009347010E94E703B2
:100FD000DC0112960D911C910115110509F451C106
:100FE000D801ED91FC910480F581E02DBE016B5E8E
:100FF0007F4FC8010995009709F03EC1F8010085AF
:101000001185EACFF3E0FF120EC08F89882309F41F
:1010100040C0823061F440E867E08BED96E00E94CA
:101020009109811148CF81E28093EB0047CF813055
:1010300029F440E86BE08FEC96E0F1CF833099F72C
:101040000E94E703DC011296ED90FC908E010F5F89
:101050001F4F6801E114F10479F0D701ED91FC9183
:101060000680F781E02DB801C7010995080F111D11
:10107000F701E084F184EECFD8011C92F6010190D3
:101080000020E9F73197BF016C197D0940E0C601E6
:10109000C6CF69EB76E0FB01449150E080E80E9406
:1010A000AA0409CF973009F4BECF983021F481E02B
:1010B0008093F10000CF993009F0FDCE837009F0E4
:1010C000B2CFEEE0F1E081E031E096E3219122231E
:1010D00071F08093E9003093EB00DF0111972C91C0
:1010E0002093EC009093ED008F5F873079F78EE7C7
:1010F0008093EA001092EA008F8980935C01DBCE36
:101100008B8D9C8D1092E90010924A01109249013A
:101110009093480180934701898D811192C08E89F7
:101120009D89913A49F4813209F07DCF47E050E042
:1011300065E071E080E0B3CF913209F074CF833283
:1011400069F48F89988DB0E0A0E0809301019093BD
:101150000201A0930301B0930401ADCE803269F483
:101160008091E80082FFFCCF67E085E091E00E947B
:1011700001058BEF8093E8009ECE823209F09BCE72
:101180008F8980930C01EEEFFFE7859194918B3F5F
:101190009C4D51F1E0E0F8E080910501909106014D
:1011A000A0910701B0910801803B9440A105B105D1
:1011B000F1F480910C0180FD1AC0EE3F8AE0F8073F
:1011C00089F587E797E7918380838091600080931A
:1011D0004B0188E19BE00FB6F894A89580936000DE
:1011E0000FBE9093600067CEEEEFFAE0D5CF80811E
:1011F00091818737974709F05ECEA895809160006E
:1012000088618093600080914B0180936000EE3F85
:101210002AE0F20789F08091FE0A9091FF0A9183FB
:10122000808349CE808191818737980751F29093CE
:10123000FF0A8093FE0AC5CF1092FF0A1092FE0AA1
:101240003ACE0E94E703DC0112960D911C91011524
:10125000110509F4E8CED801ED91FC910190F081DF
:10126000E02DBE016B5E7F4FC8010995811123CE31
:10127000F80100851185EBCF181619060CF41BCE6A
:10128000D2CEF1E0FF12BECE6DEB76E004CF1F921E
:101290000F920FB60F9211242F933F938F939F932A
:1012A000AF93BF938091370190913801A09139019C
:1012B000B0913A013091320123E0230F2D3758F5D8
:1012C0000196A11DB11D20933201809337019093A7
:1012D0003801A0933901B0933A0180913301909184
:1012E0003401A0913501B09136010196A11DB11DC7
:1012F0008093330190933401A0933501B09336016C
:10130000BF91AF919F918F913F912F910F900FBE01
:101310000F901F90189526E8230F0296A11DB11D6E
:10132000D2CFEF92FF920F931F93CF93DF93F82EBC
:10133000192FE62E042F81E0860F880F0E947C046F
:1013400083E00E947C04CF2DD12FEC0EFD2EF11CEA
:10135000CE15DF05B9F007FF13C0FE0184910E948E
:101360007C04182F80E00E947C0481232196811147
:10137000EFCFDF91CF911F910F91FF90EF900895E4
:101380008881EDCF81E0F5CFEDE5F5E013821282A3
:1013900088EE93E0A0E0B0E084839583A683B783D2
:1013A00088E191E0918380838FEF9FEF9587848719
:1013B000EDEAF5E0138212828AE291E09183808364
:1013C0000895789484B5826084BD84B5816084BDBD
:1013D00085B5826085BD85B5816085BD80916E00D3
:1013E000816080936E001092810080918100826004
:1013F0008093810080918100816080938100809141
:101400008000816080938000809191008260809351
:101410009100809191008160809391008091900073
:101420008160809390008091C10084608093C100AE
:101430008091C10082608093C1008091C100816071
:101440008093C1008091C30081608093C30080912C
:10145000C00082608093C0008091C2008160809350
:10146000C20080917A00846080937A0080917A0033
:10147000826080937A0080917A00816080937A0004
:1014800080917A00806880937A0010925C011092BB
:101490004C0110924E018091D70081608093D7005B
:1014A00080EA8093D80089B5806189BD89B5826062
:1014B00089BD09B400FEFDCF61E070E080E090E0FE
:1014C0000E9460058091D8008F7C80618093D80055
:1014D0008091E000807F8093E0008091E1008E7E2B
:1014E0008093E1008DE08093E200559A209A81EC90
:1014F00080937C0085B1806F85B984B1877E84B983
:1015000084B1876E84B95E9A5F988AB1806D8AB91A
:10151000769A6E9881B3806F81BB899880B38D7005
:1015200080BB80E58CBD81E08DBD85E090E00E94B0
:101530001A065F9A85E090E00E941A065E985C9811
:10154000ECE5F6E084918EBD00000DB407FEFDCF02
:10155000319626E0E936F207A9F75C9A81E8809394
:101560006400809165008160809365000E949D0603
:101570000E941F0687FF15C05C9885EA8EBD00009B
:101580000DB407FEFDCF5C9A2E982F982D98809170
:10159000640080628093640081E083BF889513BEFD
:1015A000FCCF0E941F0682FF48C02D980E941F0694
:1015B00084788438E1F40E94180688EC90E00E9458
:1015C0001A062F9882E090E00E94750C8F3F29F058
:1015D0006FEF82E090E00E947D0C84EF91E00E942A
:1015E0001A062F9A0E941F0684788438D9F30E9425
:1015F0001F0684718431E1F40E94180688EC90E0A3
:101600000E941A062E9882E090E00E94750C8823B2
:1016100029F060E082E090E00E947D0C84EF91E090
:101620000E941A062E9A0E941F0684718431D9F3F3
:1016300088EC90E00E941A06B4CF0E94180682E05F
:1016400090E00E94A406882309F444C03E9A3F9A81
:1016500081E090E00E94A406482F4470942E81FF00
:101660000EC041112E98C1EFDFEF08E010E00E949C
:101670001F0686FF32C02E9A2F9A0E94180682E318
:1016800090E00E941A060E941F068111F8CF82E4A2
:1016900080930001BB24B39490E0E92E90E0F92EF2
:1016A000AA24A3948FB7F894409137015091380140
:1016B0006091390170913A018FBF80913D0188237B
:1016C00009F4C6C010923D01E114F10459F30E94DF
:1016D0000000E8CF3E983F98BBCF992029F0C43056
:1016E000D10511F42E9A2F9881E00E949D039E014E
:1016F000D7FF04C0222733272C1B3D0B277033272D
:10170000CE01D7FD079673E0959587957A95E1F719
:10171000D7FF05C00197F801E21BF30B9F01AC0155
:101720005695542F44275795479543525E4FF12CB9
:10173000E12C3801621A730A8E3FFFEF9F07C1F157
:10174000DA01A058B10970E060E0F701E455FA4F02
:101750005F018F3F980781F0F501E60FF71FE491D5
:10176000022E01C0EE0F0A94EAF75496FC915497AA
:10177000EF2B5496EC9354972115310599F0F50110
:10178000E60FF71FE4916A01C60ED71EF0E02F01A5
:10179000062C02C0559447940A94E2F7F601548847
:1017A0004528448A6F5F7F4F11966835710589F629
:1017B0000196F8E5EF0EF11C40585F4F60EBE6161E
:1017C000F10409F0B9CF0E949D068FE090E00E94DD
:1017D0001A062196C931D10509F049CF992011F097
:1017E0002F9A2D9880E991E00E941A060E9418060F
:1017F00081E090E00E94A40680FF41CF8AE090E063
:101800000E94A4069FEF980F9E3F08F038CF22E376
:1018100030E0309342012093410128E330E03093DF
:10182000400120933F01CBE0D0E0682F8DEA95E0A6
:101830000E942706CE010E94A4062196C131D1053F
:10184000A1F70E949D0688EE93E00E941A0617CF2A
:1018500080913E01942F981B892F90910001891748
:1018600040F48F5F891708F02FCFB3BE889513BE61
:101870002BCFA0923D0140933E0180913B0190917E
:101880003C01019690933C0180933B01C09145013E
:10189000D0914601009143011091440110934201FF
:1018A00000934101D0934001C0933F0189E6C82EC7
:1018B00086E0D82EF6016491662349F08DEA95E022
:1018C0000E942706FFEFCF1ADF0A892B99F70E94A3
:1018D0009D060B5F1F4F1093440100934301259613
:1018E000D0934601C0934501EFCEF999FECF92BD4A
:1018F00081BDF89A992780B50895262FF999FECFD2
:101900001FBA92BD81BD20BD0FB6F894FA9AF99A1C
:101910000FBE01960895EE0FFF1F0590F491E02D84
:061920000994F894FFCFCA
:1019260010FFFFFFFF00E100000000000000C18083
:101936008100000000000000FB0393051C04110455
:10194600620420043E040000000027060E05A106DE
:02195600A006E9
:00000001FF
